:100000000C9434000C94B1000C9451000C945100E9
:100010000C9451000C9451000C9451000C9451001C
:100020000C9451000C9451000C9451000C9451000C
:100030000C9451000C9451000C9451000C945100FC
:100040000C9451000C9451000C9451000C945100EC
:100050000C9451000C9451000C9451000C945100DC
:100060000C9451000C94510011241FBECFEFD8E026
:10007000DEBFCDBF11E0A0E0B1E0E4EFF2E002C0EE
:1000800005900D92AA32B107D9F711E0AAE2B1E0CA
:1000900001C01D92A433B107E1F70E94C1000C9486
:1000A00078010C940000982F8091C00085FFFCCF50
:1000B0009093C6000895FC0107C08091C00085FFA1
:1000C000FCCF9093C600319690819923B1F70895A3
:1000D0000E945B0080E091E00E945B0008958091A7
:1000E000C00087FFFCCF8091C600089587E690E0AE
:1000F0009093C5008093C40088E18093C10086E09E
:100100008093C20082E08AB90895E9E6F0E0808138
:1001100082608083E89A8FB781608FBF789408955A
:1001200088E08AB952980895E89808955B9885E325
:10013000982F9A95F1F75B9A8A95F1F75B98089555
:100140001092850010928400E1E8F0E080818160E7
:10015000808378940895E1E8F0E080818E7F808349
:1001600008951F920F920FB60F9211248F9382E081
:1001700080932A01E8988F910F900FBE0F901F90E7
:100180001895EF92FF920F931F93CF93DF9387E61B
:1001900090E09093C5008093C40088E18093C100F3
:1001A00086E08093C20082E08AB988E08AB95298DA
:1001B000EE24E39408EC10E0C0E9D1E083E0F82EEF
:1001C00080912A01813069F0813028F0823059F025
:1001D0008330B1F73BC00E9485000E949600E092F8
:1001E0002A014A9BFECF10928500109284008091D4
:1001F000810081608093810078944A99FECF80913C
:1002000081008E7F80938100809184009091850091
:1002100060EA73E00E94330160932B0180912B010F
:1002200090E06CE271E04AE050E00E94470183E018
:1002300091E00E945B008CE291E00E94680086E100
:1002400091E00E946800F0922A01BACFC80101979C
:10025000F1F710922A0188EE93E0FE013197F1F751
:100260000197D9F7ADCFAA1BBB1B51E107C0AA1F4D
:10027000BB1FA617B70710F0A61BB70B881F991F47
:100280005A95A9F780959095BC01CD010895FB0181
:100290009F01E8944230C4F04532B4F44A3029F466
:1002A00097FB1EF4909581959F4F642F77270E94AE
:1002B0003301805D8A330CF0895D8193CB01009717
:1002C000A1F716F45DE251931082C9010C94680104
:1002D000DC01FC01672F71917723E1F7329704C0AD
:1002E0007C916D9370836291AE17BF07C8F3089538
:0402F000F894FFCFB0
:1002F4000D0A005468652044697374616E63652057
:100304006973203A20002D2D2D2D2D2D2D2D2D2DD1
:0A0314002D2D2D2D2D2D2D2D2D004A
:00000001FF
